:1000000001308A0089290000FF00030E8301A1004E
:100010000A08A0008A010408A2007708A300780853
:10002000A4007908A5007A08A600831383128B1D0B
:100030001B280B182C28220884002308F70024080A
:10004000F8002508F9002608FA0020088A00210E89
:100050008300FF0E7F0E09008A110A122F288316D3
:1000600006168312061A4628A70A0319A80AA81B0F
:1000700046282808263C03184628FF3A031D442832
:1000800027080F3C03184628A801A70183168616E7
:100090008312861A552827080319A803A703A81F47
:1000A00055282730A8000F30A7000B108A110A121C
:1000B0001B2838083A068039BC00B81F6428B709E5
:1000C000B809B70A0319B80ABA1F6B28B909BA09DF
:1000D000B90A0319BA0AF801F901F701FA013A0855
:1000E000031D7528390803198F281030BB00031031
:1000F000B70DB80DF70DFA0D3A087A02031D8228E4
:1001000039087702031C8B283908F702031CFA030D
:100110003A08FA020314F80DF90DBB0B7728BC1F3F
:100120009628F809F909F80A0319F90A0800353080
:100130008400831300080319AA280630F800F70189
:10014000F70BA028F80B9F287B30F700F70BA628A9
:10015000800B9D2808008316051283120512831652
:1001600009108312091483168910831289148316C7
:100170000911831209153408B8003308B700033099
:10018000BA00E830B9005920293078078400831379
:10019000791883170008B70083168801831237087F
:1001A00088000530B50097208316091083120910C6
:1001B000831605128312051683168910831289147B
:1001C00083160911831209153408B8003308B700E3
:1001D0000330BA00E830B90059207708B5007A0832
:1001E000B600B8007708B700BA016430B9005920EA
:1001F0002930780784008313791883170008B70023
:10020000831688018312370888000530B5009720CF
:10021000831689108312891083160910831209141A
:100220008316051283120516831609118312091508
:100230003408B8003308B7000330BA00E830B9001A
:1002400059207708B5007A08B600B8007708B700DB
:10025000BA016430B90059207708B5007A08B600B1
:10026000B8007708B700BA010A30B9005920293020
:10027000780784008313791883170008B700831662
:1002800088018312370888000530B500972083164F
:100290000911831209118316091083120914831698
:1002A00089108312891483160512831205163408E7
:1002B000B8003308B7000330BA00E830B90059205D
:1002C0007708B5007A08B600B8007708B700BA0119
:1002D0006430B90059207708B5007A08B600B80034
:1002E0007708B700BA010A30B900592029307707DA
:1002F000840083137A1883170008B70083168801D7
:100300008312370888000530B50097208A110A1239
:10031000BE2903081F398300A801A70183161F14F3
:100320009F141F159F1107309C008313C030831248
:10033000A900F930AA00A430AB00B030AC0099306D
:10034000AD009230AE008230AF00F830B0008030A7
:10035000B1009030B200EF3083168500091089108B
:100360000911003088003030860083128B15C030B0
:100370008B042808B4002708B300AB28B929630010
:02400E00323F3F
:00000001FF
;PIC16F877A
;CRC=FD06  CREATED="27-May-19 17:29"
