:1000000001308A0065290000FF00030E8301A10072
:100010000A08A0008A010408A2007708A300780853
:10002000A4007908A5007A08A600831383128B1E0A
:100030001B280B192C28220884002308F700240809
:10004000F8002508F9002608FA0020088A00210E89
:100050008300FF0E7F0E09008A110A122F283D30FF
:100060008100B10A0319B20A3108643C031D40281B
:10007000B208031D4028B30A0319B40AB201B10142
:100080003308103C031D4A283408273C031D4A2826
:10009000B401B3010B118A110A121B28F801F901EE
:1000A000F701FA013C08031D58283B080319722880
:1000B0001030BD000310B90DBA0DF70DFA0D3C0854
:1000C0007A02031D65283B087702031C6E283B0853
:1000D000F702031CFA033C08FA020314F80DF90DA9
:1000E000BD0B5A2808003730840083130008031919
:1000F00086280630F800F701F70B7C28F80B7B28E0
:100100007B30F700F70B8228800B792808008316D4
:10011000051283120512831609108312091483161F
:100120008910831289148316091183120915360860
:10013000BA003508B9000330BC00E830BB004E20DF
:100140002730780784008313791883170008B900D3
:10015000831688018312390888000530B7007320A0
:1001600083160910831209108316051283120516CF
:1001700083168910831289148316091183120915B5
:100180003608BA003508B9000330BC00E830BB00BF
:100190004E207708B7007A08B800BA007708B9008F
:1001A000BC016430BB004E202730780784008313E5
:1001B000791883170008B90083168801831239085B
:1001C00088000530B70073208316891083128910C8
:1001D000831609108312091483160512831205165B
:1001E00083160911831209153608BA003508B900BB
:1001F0000330BC00E830BB004E207708B7007A0817
:10020000B800BA007708B900BC016430BB004E20CA
:100210007708B7007A08B800BA007708B900BC01BF
:100220000A30BB004E2027307807840083137918EA
:1002300083170008B90083168801831239088800E3
:100240000530B70073208316091183120911831634
:1002500009108312091483168910831289148316D6
:100260000512831205163608BA003508B9000330A6
:10027000BC00E830BB004E207708B7007A08B80011
:10028000BA007708B900BC016430BB004E20770883
:10029000B7007A08B800BA007708B900BC010A3084
:1002A000BB004E2027307707840083137A1883170A
:1002B0000008B900831688018312390888000530C8
:1002C000B70073208A110A12992903081F39830085
:1002D000B201B101B401B30183161F149F141F159D
:1002E0009F1107309C008313C0308312A700F930A0
:1002F000A800A430A900B030AA009930AB00923019
:10030000AC008230AD00F830AE008030AF009030ED
:10031000B00083160108C039043881003D308312D3
:1003200081008B16C0308B043408B6003308B5004A
:06033000872894296300F8
:02400E00323F3F
:00000001FF
;PIC16F877A
;CRC=FB40  CREATED="30-Jun-19 20:03"
