:1000000000308A001A2800002D3084008313000875
:10001000031917280630F800F701F70B0D28F80B25
:100020000C287B30F700F70B1328800B0A288A1165
:100030000A12562803081F39830083161F149F14C1
:100040001F159F1107309C0083130914891409118F
:1000500000308800091183120911C030A100F93065
:10006000A200A430A300B030A4009930A5009230C3
:10007000A6008230A700F830A8008030A900903098
:10008000AA00AB012B08093C031C5A2821302B077E
:10009000840083130008AC008316880183122C08A7
:1000A00088000430AC00FA30AD000428AC0B5328B3
:0A00B000AB0A422883162A286300D9
:02400E00323F3F
:00000001FF
;PIC16F877A
;CRC=67AF  CREATED="16-May-19 19:41"
