:1000000000308A003A28000025080739F700250C3F
:10001000F800F80CF80C1F30F80578082707840062
:10002000831328188317F801F80AF70A1828F80D1F
:10003000F70B1728A608031920287808800423281E
:10004000F80978088005080025308400831300082B
:10005000031937280630F800F701F70B2D28F80BA5
:100060002C287B30F700F70B3328800B2A288A11C5
:100070000A12782803081F39830083161F149F145F
:100080001F159F1107309C008313003088008312D6
:10009000A2012208073C031C7C28FE30A100220894
:1000A000F800031957280310A10DF80B53288316E5
:1000B0008801831221088800A30122082302031863
:1000C000732840302307A400A5000130A600A80132
:1000D000A70104202408A500A601A8018030A700DC
:1000E0000420A30A5D280230A400FA30A5002428C9
:0C00F000A40B7528A20A492848286300C8
:02400E00323F3F
:00000001FF
;PIC16F877A
;CRC=6E07  CREATED="12-May-19 22:39"
