:1000000001308A00342900002E3084008313000858
:10001000031917280630F800F701F70B0D28F80B25
:100020000C287B30F700F70B1328800B0A280800F8
:10003000310833068039B500B11F2328B009B10952
:10004000B00A0319B10AB31F2A28B209B309B20AC8
:100050000319B30AF801F901F701FA013308031D86
:100060003428320803194E281030B4000310B00DA4
:10007000B10DF70DFA0D33087A02031D412832083D
:100080007702031C4A283208F702031CFA033308DC
:10009000FA020314F80DF90DB40B3628B51F5528D4
:1000A000F809F909F80A0319F90A08008316051274
:1000B00083120512831609108312091483168910FE
:1000C0008312891483160911831209152D08B100B2
:1000D0002C08B0000330B300E830B2001820223002
:1000E000780784008313791883170008B0008316FB
:1000F00088018312300888000530AE000420831682
:10010000091083120910831605128312051683162F
:1001100089108312891483160911831209152D0879
:10012000B1002C08B0000330B300E830B200182052
:100130007708AE007A08AF00B1007708B000B301CD
:100140006430B200182022307807840083137918B5
:1001500083170008B00083168801831230088800D6
:100160000530AE000420831689108312891083168F
:1001700009108312091483160512831205168316BB
:100180000911831209152D08B1002C08B0000330A5
:10019000B300E830B20018207708AE007A08AF004C
:1001A000B1007708B000B3016430B20018207708BE
:1001B000AE007A08AF00B1007708B000B3010A3092
:1001C000B20018202230780784008313791883172F
:1001D0000008B000831688018312300888000530BB
:1001E000AE00042083160911831209118316091029
:1001F0008312091483168910831289148316051239
:10020000831205162D08B1002C08B0000330B3008E
:10021000E830B20018207708AE007A08AF00B100CD
:100220007708B000B3016430B20018207708AE0040
:100230007A08AF00B1007708B000B3010A30B2000D
:10024000182022307707840083137A188317000858
:10025000B000831688018312300888000530AE0094
:1002600004208A110A12A42903081F398300A1015E
:10027000A00183161F149F141F159F1107309C00A7
:100280008313C0308312A200F930A300A430A4006D
:10029000B030A5009930A6009230A7008230A800A7
:1002A000F830A9008030AA009030AB00EF30831600
:1002B000850009108910091100308800033086007C
:1002C00006148312061883290230AE000420831618
:1002D0000614831206187429831606148312061C4A
:1002E0006C29A00A0319A10AA11B83292108263C15
:1002F00003188329FF3A031D812920080F3C0318A6
:100300008329A101A00183168614831286189F29D0
:100310000230AE00042083168614831286189929B1
:10032000831686148312861C902920080319A103C2
:10033000A003A11F9F292730A1000F30A000210892
:0E034000AD002008AC0056288316602963002B
:02400E00323F3F
:00000001FF
;PIC16F877A
;CRC=C5C1  CREATED="27-May-19 17:34"
