:1000000000308A00182800002B3084008313000879
:10001000031917280630F800F701F70B0D28F80B25
:100020000C287B30F700F70B1328800B0A280800F8
:1000300003081F39830083161F149F141F159F1177
:1000400007309C008313EF308500091089100911D7
:1000500000308800C0308312A100F930A200A43023
:10006000A300B030A4009930A5009230A6008230E1
:10007000A700F830A8008030A9009030AA008316AD
:1000800005128312051283160910831209148316B0
:100090008910831289148316091183120915831696
:1000A00088018312220888000530AB0004208316E3
:1000B0000910831209108316051283120516831680
:1000C0008910831289148316091183120915831666
:1000D00088018312230888000530AB0004208316B2
:1000E000891083128910831609108312091483164C
:1000F000051283120516831609118312091583163A
:1001000088018312240888000530AB000420831680
:100110000911831209118316091083120914831619
:10012000891083128914831605128312051683160B
:1001300088018312250888000530AB0004203F2881
:0201400063005A
:02400E00323F3F
:00000001FF
;PIC16F877A
;CRC=F84A  CREATED="16-May-19 23:17"
