:1000000000308A00FD280000FF00030E8301A100DC
:100010000A08A0008A010408A2007708A300780853
:10002000A4007908A5007A08A600831383128C30F7
:100030008400001C1D280C1832288B1E21280B1947
:100040003528220884002308F7002408F800250832
:10005000F9002608FA0020088A00210E8300FF0E0E
:100060007F0E09008A110A12DC288A110A124D2813
:100070003808F8013702031840283708F7004C28E1
:10008000F7010830B900B70DF70D380877020318EB
:10009000F700F80DB90B43280800831605128312E8
:1000A000051683160910831209148316891083120A
:1000B000891483160911831209159E308100B50A2F
:1000C0000319B60A3508F7003608FA007A08031D46
:1000D0006D2801307702031983287A08031D7428DC
:1000E00002307702031998287A08031D7B28033011
:1000F00077020319AD287A08031D8228043077029D
:100100000319C228D8288316051283120512310854
:10011000B7000A30B80038202730780784008313EE
:100120000008B70083168801831237088800D82892
:1001300083160910831209103108B7000A30B8007D
:10014000382027307707840083130008B700831610
:100150008801831237088800D828831689108312F3
:1001600089103208B7000A30B800382027307807E5
:10017000840083130008B7008316880183123708B0
:100180008800D82883160911831209113208B70094
:100190000A30B8003820273077078400831300081E
:1001A000B70083168801831237088800B601B501AD
:1001B0000B118A110A1221288E01FD308F008F3019
:1001C0008E00B30A0319B40A3308E83C031DEF2874
:1001D0003408033C031DEF28B401B301B20A32080E
:1001E0003C3C031DF528B201B10A31083C3C03191F
:1001F000B1010C108A110A12212803081F3983004B
:10020000B101B201B401B301B601B50183161F14E7
:100210009F141F159F1107309C008313C030831259
:10022000A700F930A800A430A900B030AA00993086
:10023000AB009230AC008230AD00F830AE008030C0
:10024000AF009030B000003083168800091089108C
:10025000091110308500B530831290008E01FD30F9
:100260008F008F308E0083160C140108C0390738B8
:1002700081009E30831281008B16C0308B043F2991
:02028000630019
:02400E00323F3F
:00000001FF
;PIC16F877A
;CRC=20B8  CREATED="07-Jul-19 21:16"
