:1000000000308A004C280000FF00030E8301A1008D
:100010000A08A0008A010408A2007708A300780853
:10002000A4007908A5007A08A600831383128C30F7
:100030008400001C1D280C182E2822088400230888
:10004000F7002408F8002508F9002608FA0020081F
:100050008A00210E8300FF0E7F0E09008A110A120A
:1000600031288E01FD308F008F308E00A70A0319D2
:10007000A80A2708E83C031D48282808033C031D5C
:100080004828A801A70183168813803083128806A8
:100090000C108A110A121D2803081F398300A801B9
:1000A000A70183161F149F141F159F1107309C0072
:1000B000831380308800B530831290008E01FD30AC
:1000C0008F008F308E0083160C14C03083128B0487
:0400D0006828630039
:02400E00323F3F
:00000001FF
;PIC16F877A
;CRC=4E7C  CREATED="01-Jul-19 15:14"
