:1000000000308A0018280000223084008313000882
:10001000031917280630F800F701F70B0D28F80B25
:100020000C287B30F700F70B1328800B0A280800F8
:1000300003081F39830083161F149F141F159F1177
:1000400007309C008313003088008801FE30831243
:1000500088000430A100FA30A2000420A10B2B2854
:1000600083168801831288010430A100FA30A200AF
:100070000420A10B3628831688015530831288008E
:100080000430A100FA30A2000420A10B42288316FC
:100090008801FF30831288000430A100FA30A200EA
:0C00A0000420A10B4E28831625286300C5
:02400E00323F3F
:00000001FF
;PIC16F877A
;CRC=1DAF  CREATED="18-Jul-19 22:41"
