:1000000001308A0058290000FF00030E8301A1007F
:100010000A08A0008A010408A2007708A300780853
:10002000A4007908A5007A08A600831383120B1E8A
:100030001B288B182C28220884002308F70024088A
:10004000F8002508F9002608FA0020088A00210E89
:100050008300FF0E7F0E09008A110A122F28A70ABB
:100060000319A80AA81B3D28A808031D3B28270838
:10007000093C03183D28A801A7018B108A110A1218
:100080001B28F801F901F701FA013A08031D4B2872
:100090003908031965281030BB000310B70DB80DDF
:1000A000F70DFA0D3A087A02031D5828390877022D
:1000B000031C61283908F702031CFA033A08FA0204
:1000C0000314F80DF90DBB0B4D28080035308400E2
:1000D00083130008031979280630F800F701F70B9D
:1000E0006F28F80B6E287B30F700F70B7528800B14
:1000F0006C28080083160512831205128316091056
:100100008312091483168910831289148316091126
:10011000831209153408B8003308B7000330BA0059
:10012000E830B9004120293078078400831379181A
:1001300083170008B70083168801831237088800E8
:100140000530B50066208316091083120910831646
:1001500005128312051683168910831289148316DB
:100160000911831209153408B8003308B7000330A9
:10017000BA00E830B90041207708B5007A08B60027
:10018000B8007708B700BA016430B90041202930BF
:10019000780784008313791883170008B700831643
:1001A00088018312370888000530B5006620831661
:1001B000891083128910831609108312091483167B
:1001C00005128312051683160911831209153408C6
:1001D000B8003308B7000330BA00E830B900412056
:1001E0007708B5007A08B600B8007708B700BA01FA
:1001F0006430B90041207708B5007A08B600B8002D
:100200007708B700BA010A30B900412029307807D1
:1002100084008313791883170008B70083168801B8
:100220008312370888000530B5006620831609114F
:100230008312091183160910831209148316891079
:100240008312891483160512831205163408B80028
:100250003308B7000330BA00E830B900412077080E
:10026000B5007A08B600B8007708B700BA01643064
:10027000B90041207708B5007A08B600B8007708C1
:10028000B700BA010A30B90041202930770784004D
:1002900083137A1883170008B70083168801831226
:1002A000370888000530B50066208A110A128D29AA
:1002B00003081F398300A801A70183161F149F1488
:1002C0001F159F1107309C008313C0308312A900B3
:1002D000F930AA00A430AB00B030AC009930AD00CA
:1002E0009230AE008230AF00F830B0008030B10004
:1002F0009030B200EF308316850009108910091183
:10030000003088000130860083120B16C0308B0449
:0E0310002808B4002708B3007A288829630063
:02400E00323F3F
:00000001FF
;PIC16F877A
;CRC=A6D8  CREATED="27-May-19 17:09"
